:02000000800B73
:10000B00804175890175A882753000E53090008CB0
:10001B0093FA602B540FFDEAC4540F7004C28C800A
:10002B001714F5222390006E93F58CF521E522230E
:10003B000493F58AF520D28C12005F05308054C2F0
:10004B008C80C5C0E0C0D085208A85218CB2A7D01A
:10005B00D0D0E0327F027C647BF8DBFEDCFADFF68B
:10006B00DDF222F889F959FA13FA68FB04FBB8FCA4
:10007B000CFC44FCADFD0AFD34FD82FDC8FE06FE02
:10008B0022A4849464A292839264A4849494C2A2C2
:03009B007284006C
:00000001FF
