:03000000020030CB
:03000B0002009C54
:0300230002005880
:10003000759850758700758921758DFD758BFD75D7
:10004000A892C2B9D2BCD28ED2D530D50280FBD212
:10005000D5B2A412006080F2C298E599F8C2D532F8
:10006000753000E530758300888293FA602B540F59
:10007000FDEAC4540F7004C28C801714F52223903B
:1000800000C993F58CF521E522230493F58AF52028
:10009000D28C1200AD053080CAC28C22C0E0C0D024
:1000A00085208A85218CB2A7D0D0D0E0327F027C17
:1000B000647BE6DBFEDCFADFF6DDF2227F327C6475
:1000C0007BFADBFEDCFADFF622F889F959FA13FA3B
:1000D00068FB04FBB8FC0CFC44FCADFD0AFD34FDE0
:1000E00082FDC8FE06FE22A4849464A292839264D8
:1000F000A4849494C2A27284006272848484A2A2B2
:10010000A2965252A4A4A4929292868472626286AB
:0F01100084725252868282946472828272760066
:00000001FF
