:03000000020030CB
:03000B0002008868
:03001300020043A5
:10003000D28AD2AAD2B9C2BA758911D2A9D2AFD204
:10004000D580FEB2A41200A8B2A412004E32D2A9EA
:10005000753000E5309000F493FA6029540FFDEA02
:10006000C4540F7002801E14F522239000D693F51D
:100070008CF521E522230493F58AF520D28C120019
:1000800099053080CEC28C22C0E0C0D085208A8500
:10009000218CB2A7D0D0D0E0327F027C647BF8DB29
:1000A000FEDCFADFF6DDF2227F327C647BFADBFED7
:1000B000DCFADFF622C0E0C0D0C28E758D3C758BB5
:1000C000B0D28E0533E533B405004005B2A47533D4
:1000D00000D0D0D0E032F889F959FA13FA68FB045D
:1000E000FBB8FC0CFC44FCADFD0AFD34FD82FDC8F0
:1000F000FE06FE22A4849464A292839264A4849453
:0601000094C2A27284000B
:00000001FF
